:020000041000EA
:1000000000B5324B212058609868022188439860DF
:10001000D860186158612E4B002199600221596106
:100020000121F02299502B49196001219960352056
:1000300000F044F80222904214D00621196600F024
:1000400034F8196E01211966002018661A6600F04E
:100050002CF8196E196E196E052000F02FF8012189
:100060000842F9D1002199601B49196000215960AB
:100070001A491B48016001219960EB211966A021F2
:10008000196600F012F800219960164914480160C1
:100090000121996001BC002800D000471248134993
:1000A000086003C880F30888084703B5996A0420EC
:1000B0000142FBD001200142F8D103BD02B5186610
:1000C0001866FFF7F2FF186E186E02BD00000240BE
:1000D000000000180000070000035F00212200005C
:1000E000F4000018222000A00001001008ED00E03C
:1000F00000000000000000000000000074B24E7A12
:1001000000200420F7010010C3010010C5010010F9
:10011000C1010010C1010010C1010010C101001097
:10012000C1010010C1010010C1010010C701001081
:10013000C1010010C1010010C9010010CB01001065
:10014000CD010010CD010010CD010010CD01001037
:10015000CD010010CD010010CD010010CD01001027
:10016000CD010010CD010010CD010010CD01001017
:10017000CD010010CD010010CD010010CD01001007
:10018000CD010010CD010010CD010010CD010010F7
:10019000CD010010CD010010CD010010CD010010E7
:1001A000CD010010CD010010CD010010CD010010D7
:1001B000CD010010CD010010CD010010CD010010C7
:1001C00000BE00BE00BE00BE00BE00BEEFF3058054
:1001D000103800BEF2EB8871A0840110C0840110B9
:1001E0003802001090A31AE71E481F49086006C88D
:1001F00081F3088810471D480068002801D019487D
:10020000F3E70DA40ECC002902D000F012F8F9E7B4
:100210001749184A002000E001C19142FCD116495B
:100220008847164988471649884700BEFDE701C937
:1002300001C29A42FBD37047C0840110C000002065
:100240009C1B00209C9F0110000004200000042043
:100250009C9F0110001004200010042000000000EA
:10026000704700000000000008ED00E0000000D032
:100270009C1B00207C7800201D4700106D0800109A
:1002800015470010F8B5C0460448054B10B5834229
:1002900003D0044B002B00D0984710BD9C1B0020BE
:1002A0009C1B00200000000006480749091A8B101B
:1002B000C90FC91810B5491003D0044B002B00D04A
:1002C000984710BD9C1B00209C1B002000000000D4
:1002D00010B5074C2378002B09D1FFF7D5FF054B4C
:1002E000002B02D0044800E000BF0123237010BDA2
:1002F0007065002000000000086D0110054B10B56E
:10030000002B03D00449054800E000BFFFF7CCFFF5
:1003100010BDC0460000000074650020086D01108B
:1003200070B50A4C0A4D2068616802F05FF92860D8
:10033000A068E16802F05AF9064D2860A06AE16AF7
:1003400002F054F9044D286070BDC046A01B002087
:10035000E46D0020E86D0020EC6D0020F0B5C6468D
:100360000E0000B511038046204815001F0001F063
:1003700023FE4B1E99411D480C00290001F01CFE74
:10038000000B2418102C00D210242100184801F072
:1003900013FE290001F010FE4246164B451E234075
:1003A00094004444144AA400A21853602B041B0C6C
:1003B0001361124B38009C4664216843644401F089
:1003C000FBFD03041B0C002E0DD00D4A1B042168FD
:1003D00028004B401340802252019446644423601D
:1003E00080BCB846F0BD074AF1E7C04640597307E4
:1003F00000943577FF0F0000000005400C00054019
:100400000000FFFFFFFF0000F0B5C6460125040015
:1004100000B540688846170000F0DAFB2A006368E0
:10042000D0269A4036067262A068B26100F0D0FB16
:10043000A36804219D4020687562756100F09AFBF5
:1004400021681F2916D80C07640F01253B0042467E
:1004500029402000FFF782FFA3001B19074A9B00D9
:100460009A1812689543064A944663441D6080BCFE
:10047000B846F0BD4C07A40F0834E6E7000005407D
:1004800000100540F8B5CE464746156880469146AF
:1004900080B50E1C1F2D36D82F077F0F0124002199
:1004A000301C02F04BFC4B4622005B6825409A4012
:1004B000D0231B0600282CD09A614A4692689440AB
:1004C0005C61194BBC009C46E4194146A400301CF9
:1004D000644402F0FEFB154902F0E7FB02F05AFC0F
:1004E0000004000C002D12D0114B00042268424081
:1004F0001340802252019446644401202360C0BC12
:10050000B946B046F8BD6F07BF0F0837C6E7094BBD
:10051000ECE75A614A46926894409C6180231B062E
:100520009C466644CDE7C0460C0005400000C8422A
:100530000000FFFFFFFF0000F0B5DE4657464E46C5
:100540004546E0B510008BB0190002F05DFCA949EA
:1005500002F0ABFBA84B041C9B46069002F062FC29
:100560005B4618605960A54B211C9946186814F029
:10057000ABFF4B461868211C183014F0A5FF4B4602
:100580001868211C303014F09FFF4B46186814F097
:10059000BBFF01F0E3FF4B46994F38607960186864
:1005A000183014F0B1FF01F0D9FF4B46B860F96084
:1005B0001868303014F0A8FF01F0D0FF914B38617B
:1005C00079611B689846904B1E68301C02F02AFC2B
:1005D0008E4A8F4B01F05BFF8E4B0290039118689F
:1005E00002F020FC8C4A8D4B01F051FF8022040068
:1005F0000D0012068A4B42441000019302F012FCD7
:10060000884A894B01F043FF029A039B01F018FFCF
:1006100022002B0001F014FF01F0E8FF02F002FCC1
:10062000824A834B01F015FF01F0E0FF019B186047
:10063000404602F0F7FB7B4A7B4B01F028FF029A11
:10064000039B01F0FDFE22002B0001F0F9FE01F0FA
:10065000CDFF02F0E7FB754A754B01F0FAFE01F0A1
:10066000C5FF8022019B12065860B01802F0DAFB29
:1006700022002B0001F0E4FE01F0B8FF02F0D2FBF3
:100680006B4B6A4A01F0E5FE01F0B0FF0024D8464A
:10069000019B684D9860684B09979A46674B079392
:1006A000674B08934A46019B67001B5910689B469D
:1006B0003B195B00C018002114F028FF011C5846AC
:1006C00002F0EDFA2968061C02F003FB296902908A
:1006D000301C02F0E7FA6968286102F0FAFAE9686A
:1006E0000490301C02F0DBFAA96802F0F2FA0499D7
:1006F0000590EE60029802F0D5FA059902F0D2FA60
:10070000069902F0E6FA594602F0CCFA0021061CDE
:1007100002F014FB00285BD04A4B301C195902F040
:10072000D8FA494B195902F0BDFA061C4749301C4A
:1007300002F004FB00285BD14549301C02F0F8FAB6
:10074000002800D0424E534640C39A46079B3A19B0
:100750009C46089B62441859311C0434FFF792FEF2
:1007600014350C2C9ED14B4600211868099F14F0BB
:10077000CDFE02F057FB4B46364C20606160186896
:100780000021183014F0C2FE02F04CFB4B462060F2
:10079000616018680021303014F0B8FE02F042FBAE
:1007A00000222060616021002B4808F0E9F939003F
:1007B00000222A4808F0E4F900224146284808F0BF
:1007C000DFF90BB0F0BCBB46B246A946A046F0BD6F
:1007D000244B301C195902F07CFA234B195902F0B2
:1007E0005EFA061C1949301C02F0A8FA0028A3D0B2
:1007F000164EA8E7286B6E4E506500202863002037
:1008000010630020E46D0020E86D00202D42C60634
:100810000000E03FEC6D0020E17A14AE47E1BA3F02
:10082000B87600205C066FE47AB6EB3FFA7E6ABCCD
:100830007493A83FA00F0020AC760020DC0F0020AE
:10084000C476002024100020181000200000C642AA
:100850000000C6C2586500200C77002004770020F5
:10086000087700200C10002000100020F0B5C646CC
:1008700000B54249C0B001914149424A424B009102
:100880000120002109F0CCF9192000F0A1F9D027AE
:10089000802302AC9B043F0620007B620CAD98468F
:1008A00009F01CF92B0007CC07C3FA2006CC06C3BD
:1008B0008000782109F0CEF9041E04D0200040B059
:1008C00080BCB846F0BD00222B00110011A808F032
:1008D000D9FF2E4A2E4911AB0AA809F01DF806F0DF
:1008E000ADFD2C4E02002C4B0AA9300009F04EF849
:1008F00006F0A4FD294B02000AA9300009F046F8D1
:100900000AF01CF8264E0200264B0AA9300009F016
:100910003DF806F07BFD244E0200244B0AA930006E
:1009200009F068F8224B234A009311A9002309A873
:1009300009F094F82B00022211A91EA808F0A4FCCB
:1009400009A91EA808F03AFD31001B4B1B4A009470
:100950001EA808F0F9FC00280CD143460020002115
:100960007B61174B186059600023164A1EA808F0D7
:1009700051FFF9E701246442A0E7C046110B0010C3
:10098000D90A0010B90A0010D50A0010E880011039
:10099000086D011004770020146D0110286D0110FE
:1009A000087700203C6D01101C7800204C6D011070
:1009B0003905001080F0FA0221030010A01B00206E
:1009C0005065002000E1F505F0B52A4C2A4D95B0A0
:1009D0000095231C0022102102A814F025FD00958B
:1009E000231C01220E2108A814F01EFD04210095ED
:1009F000231C02220EA814F017FD002200231F4C16
:100A00004820226063600023A36002F03BFB0500E6
:100A100002A948224835A560206002F0E5FA184F87
:100A20006560386802F0B6F9164E174C02003100C6
:100A30002000FFF7E9FC02F086F9144D2860786881
:100A400002F0A8F90200200031000C30FFF7DCFCB6
:100A500002F079F96860B86802F09CF902002000A1
:100A600031001830FFF7D0FC02F06DF9A86015B026
:100A7000F0BDC046000040420000964228630020BE
:100A8000AC76002010270000DC0F0020C476002088
:100A900010B50C0000F056FF0023064A01F0CAFA18
:100AA00053019B1A9B009A18D20020606160A260DB
:100AB000002010BD40420F0010B5054C2378002BDC
:100AC00001D1012010BD03F0E7FE00232370F8E7F9
:100AD0003010002001207047F0B5C6460F00160008
:100AE000984600B5002A0ED0002402E00134A64248
:100AF00009D03D5D280003F01FFF8542F6D0012399
:100B0000424626001370300080BCB846F0BDC04697
:100B1000F0B5C64600B517001C00884600F012FF6D
:100B200002000B00002F23D06101091B8900091965
:100B3000C9000C00CD17A4185D41002608E003F0A1
:100B4000AFFE831C0DD0434698550136B7420BD0FB
:100B500000F0F8FE22002B00121A8B411000002B2F
:100B6000EDDA0123069A1370300080BCB846F0BD60
:100B70000026F9E7094A83009A1810B51468402244
:100B8000544080322240064CC000A44663441A60A0
:100B9000044B9C466044416010BDC04604C0014007
:100BA00004D0014000400140074B8000C3181B687F
:100BB000C90092000A435A400C231340034A94464A
:100BC000604403607047C04604C0014004D0014047
:100BD0000123D0228340120693629361094A830065
:100BE0009A1811684022514080320A400649C000DC
:100BF0008C4663441A60054B9C4605236044436061
:100C00007047C04604C0014004D00140004001408C
:100C10008023DB051868000F7047C0460FB400B58D
:100C2000084883B003F0D4FE049B002B07D005A92D
:100C30001800019103F03AFD034803F0C9FE0120BA
:100C400003F04CFD546D0110646D0110EFF3108042
:100C500072B6034A1368002BFCD0BFF35F8F704756
:100C60002C0100D0BFF35F8F0022024B1A6080F38B
:100C7000108870472C0100D070B5EFF3108C72B65D
:100C80000D4D2B68002BFCD0BFF35F8F0724CB08E2
:100C9000C618C05C01230C40A3401C000440034262
:100CA00007D118433070BFF35F8F2C608CF310882E
:100CB00070BD1000FFF7B2FF2C0100D0F8B5474619
:100CC000CE46884680B5EFF3108C72B6214D2C6865
:100CD000002CFCD0BFF35F8F9A422CD8D408072792
:100CE000055D061901241740BC402C421FD0072186
:100CF0000127894609E0D408055D06194C463900EC
:100D00001440A1400C00294211D001329342F2D28A
:100D100001204042BFF35F8F00220E4B1A608CF31C
:100D2000108800280FDBC0BCB946B046F8BD25438B
:100D300010003570EEE7BFF35F8F00232B608CF35C
:100D40001088012040424346002BECD00898FFF762
:100D500065FFC0462C0100D0044A1078431CDBB26A
:100D6000172B00D9102313707047C0463110002094
:100D700010B5064B064C82B00100009318221F23C9
:100D80002000FFF79BFF02B010BDC046686D011048
:100D9000F86D00200021044B044ABFF35F8F02C3AB
:100DA0009342FAD17047C046000100D0800100D0C4
:100DB000054B064A1360064A136053609360D36084
:100DC00013615361936170478080808000E400E08C
:100DD00004E400E01F2318401E3B8340002905D097
:100DE000C021044A490053501360704780220149D2
:100DF0008B50FAE700E100E001228240034B1B68C0
:100E000013405A1E9341D8B27047C04600E100E03B
:100E100001238340014A13607047C04600E200E0AE
:100E2000084B10309B688000C358002B07D0064A3F
:100E300000209B1A2F229A424041C0B270470020E6
:100E4000FCE7C04600ED00E03410002070B50D0056
:100E5000EFF3108672B60F4A1368002BFCD0BFF375
:100E60005F8F0D4B10309B6884001B590B4A9342D7
:100E700003D09D4201D000F099FF074B9B681D51A4
:100E8000BFF35F8FBFF35F8F0022024B1A6086F3C0
:100E9000108870BD240100D000ED00E0CD010010ED
:100EA000F0B557464E46DE464546E0B585B00600ED
:100EB00000911700EFF3108B72B66A4A1368002B8B
:100EC000FCD0BFF35F8F0025674B5D579A46002D1E
:100ED00000DA8BE06B00654C01935B199B00984630
:100EE000A146C1444B4652469B7910361370604B65
:100EF000B6009B6899590B1B2F2B33D95D4B994238
:100F000000D0ACE0019B42469C465B4B6544AD0083
:100F100063535A4B0232A218043B9B1A1B05584AD2
:100F20005B0D651913436B80564B0121AB80FF238A
:100F3000AB71009BEF71AB604B460B4319004C4B00
:100F40009B689951BFF35F8FBFF35F8F0022454BC2
:100F50001A608BF3108805B0F0BCBB46B246A946B8
:100F6000A046F0BD01200A008243D3798C46BB42E3
:100F700031D84546130044491B1B5B415943090DB9
:100F80003D4B63533D4B02356519043B5B1B1B0511
:100F90003B4D5B0D2B43AA464D466B800425AC466A
:100FA0005546E044131F44441B1B1B055B0D1D43AA
:100FB0004B46997100999D8099604946DF71334B8A
:100FC00001431360BBE75800C01880002018C179A6
:100FD000B94211D902000623D356002BF3DA02934B
:100FE000131D9A462A4B6146039319E000F0DEFE7A
:100FF000002553465D576DE7908802934005131D09
:101000009A46031561469C464046D44463460430E4
:101010002018181AE0230005400D1B021843039006
:1010200004235B429C46E14450464B461B1A1B0579
:101030005B0D9C46124B95719846634640460343B0
:101040009380019B5A199200039BA418A380029BD2
:101050000E4AA371009B2260E771A3606FE700F066
:10106000A5FE4FE7240100D077780020341000203F
:1010700000ED00E0CD01001000A1FFFF6410002092
:1010800000E0FFFF01BDFFFFAAAA00000148804762
:1010900001BD000070B501240443EFF30581EFF3B7
:1010A000108C72B6214A1368002BFCD0BFF35F8FFF
:1010B0001F4B05001F4AED1A6D416A43120D1E4D6C
:1010C0008900AE6852B27658A6421CD00621595605
:1010D00091421CD012215956914222D01E215956BC
:1010E000914220D02A2159560324914210D0134B0B
:1010F00019781A708171BFF35F8F00220B4B1A6051
:101100008CF3108870BDAB680D4C5C50EFE7002489
:101110006100091989005B18FF21997109499980BB
:10112000E5E70124F4E70224F2E7C046240100D0F9
:1011300034100020AAAA000000ED00E0777800201B
:10114000CD01001001BDFFFF10B5084B084C82B067
:1011500001000093002205232000FFF7AFFD0028C7
:1011600001DB1F23181A02B010BDC046846D0110A8
:101170007B780020024B9C466144890001607047E7
:1011800040000034F8B5134D134E2C00FF27B54234
:101190001ED22368002B0FD0FFF7DEFD01002800D0
:1011A000FFF7E8FFA780BFF35F8F0834B4420FD288
:1011B00023682500002BEFD1FFF7CEFD01002800AA
:1011C000FFF7D8FF2771BFF35F8F0834B442EFD326
:1011D000F8BDC046941B00209C1B002010B50400E5
:1011E000FFF7BAFD01002000FFF7C4FFFF232371C2
:1011F000BFF35F8F10BDC04610B504000120FFF79C
:10120000B7FD034BC3189B002360BFF35F8F10BD76
:1012100040000034034B9C46614489000160BFF3E9
:101220005F8F7047400000340A4B1968EFF310805D
:1012300072B60A68002AFCD0BFF35F8F1B68BFF349
:101240005F8F00221A6080F3108840BF00200021C9
:101250007047C04668770020F0B5DE4657464E46D8
:101260004546E0B585B0EFF3058203231340B84A45
:101270009900575801229A40B64B88461A60B64BDF
:10128000934602932AE0BB881BB2002B00DBA2E04E
:10129000BB79002B00D0E3E00823F85E002800DAD9
:1012A00013E143007A691B18DB00D3189D68DC68E2
:1012B0006B1C00D100E1A94B190041449A6A0B69EB
:1012C000A81A9B1A984200D20D61A44800F032FB84
:1012D0008C4200DDF9E08C4200D130E15B469F4852
:1012E00043630823FE5E002ECDDB7A6973009146CE
:1012F0009B19DB0099444B469C68DD6800F01AFBA3
:101300008D42C0DC00D108E1002D00DAEDE04B4653
:10131000029A1B69934200D1DFE04A46528849464F
:1013200094460822B85E6246000449691043984713
:10133000009001910099019A0B001000134300D115
:10134000D3E013000A00002800DBEAE020002900B7
:10135000801A99414B469860D96000229A5E002A13
:1013600091DB53009C187D69E4002C190093A3685D
:10137000E4689A468C4286DC02D1834200D982E737
:1013800008239C46BC443A8103976746009BB446B9
:101390003E000EE08C4200D1D5E01E000023F25E3C
:1013A000002A0BDB53009C18E4002C19A768E468A2
:1013B000BA469B18DB00EB188C42EBDD3300664627
:1013C0009C464B461A806346039F1E80BB881BB217
:1013D000002B00DA5CE73A69EFF3108172B613680C
:1013E000002BFCD0BFF35F8F0123BE885B42BB8024
:1013F00036B23B69BFF35F8F00221A6081F3108819
:10140000002E00DA44E73B0008333A0099467D6934
:1014100073009B19DB00EB189968DC688C46082088
:10142000115E4846002910DB009306E0A3423FD03E
:101430000023F95E3800002906DB4F007F18FF000B
:10144000EF19FB68A342F1DD009B068000201E5EC1
:101450001980002EDCDA1700BB79002B00D11BE7C6
:101460000023BB713D000823F95E08354B1C2CD0CE
:101470007C690800A44603E035004B1C00D10DE751
:101480004B005B180A006146DB00CE18C95E73880A
:101490001BB2002BF0DA01235B42DC17B360F4606F
:1014A0008242EAD029803B89100033803A81E4E708
:1014B000BB686345BCD9C7E7631C00D0FBE627487F
:1014C00000F038FA8C4200DC05E740BF05B0F0BC04
:1014D000BB46B246A946A046F0BD4B465B699A465C
:1014E0001B6950469847002823D14B461B883A6910
:1014F0003B81EFF3108372B611680029FCD0BFF373
:101500005F8F49467A880A803A697E80BFF35F8F91
:101510000021116083F31088B5E6844200D8F3E619
:10152000B1E60E4800F006FA009B019CC01861412C
:1015300010E753461A685B6800920193FAE6854209
:1015400000D8CBE6C1E7824500D826E736E7C0469B
:10155000F47600203C700540591200100040054010
:1015600070B52E4C2569002D04D00A212C48FFF7B8
:1015700001FE70BD2B4E0321300000F0D1F9E66072
:10158000FFF7EAFB284B03229C46D02322701B0660
:101590001B6801216370254B6044A3600F2380000A
:1015A00020610220638063694942A1801980023171
:1015B000198647311D83585218315A5275325C3999
:1015C0009952183201319952183201319952183218
:1015D00001319952083518329D5202311832995210
:1015E00018320131995218320131995218320131B1
:1015F00099521832013199521832013199520C4BDB
:101600000C49DC6001303562FFF720FC012103202A
:10161000FFF7E0FB084B1D60A7E7C0467C100020E9
:10162000687700200040054040000034FFFF1000B4
:10163000F4760020591200103860054000487047C9
:101640007C100020F8B51F0008AB1B7804001600C2
:10165000002B08D100F076F932003B00121A8B41C2
:10166000002B00DA53E02269EFF3108072B61368A2
:10167000002BFCD0BFF35F8F0223E15E63694A0059
:101680005218D2009B18002937DB1A886280226921
:10169000BFF35F8F0025156080F31088069A9E6067
:1016A000DF601A61079A5A615A8801325204520C5B
:1016B000101C002A1FD082B25880080410432669EB
:1016C000EFF3108772B63268002AFCD0BFF35F8F49
:1016D000A2881A80A1802369BFF35F8F00221A605D
:1016E00087F310880B4923788C4601329A40E368CF
:1016F00063441A60F8BD0120DDE72369BFF35F8F03
:1017000000221A6080F3108801204042F2E7002096
:10171000F0E7C0463C20000070B501000469EFF31B
:10172000108C72B620680028FCD0BFF35F8F0220B7
:101730000D5E4C6968004019C0002418002D37DB8D
:10174000208848800869BFF35F8F002606608CF30D
:101750001088E36063880498013320615B04059876
:101760005B0CA26060611A1C002B1FD093B228048E
:10177000628018430A69EFF3108C72B61368002B6D
:10178000FCD0BFF35F8F8B8823808D800B69BFF304
:101790005F8F00221A608CF310880B7801329A4018
:1017A000CB6808498C4663441A6070BD0122DDE7AE
:1017B0000B69BFF35F8F00221A608CF31088012041
:1017C0004042F2E73C20000010B543890A149342DE
:1017D0001ADD53009B184269DB00D3180469EFF34C
:1017E000108C72B62268002AFCD0BFF35F8F5A8833
:1017F000090494B2090C8A4208D00369BFF35F8FD1
:1018000000221A608CF31088002010BD8022120282
:1018100014435C80012302698371BFF35F8F002151
:1018200011608CF31088044902788C469340C2689A
:10183000012062441360E8E73C20000040787047D4
:10184000F0B5CE46474680B504000D0083B0EFF3F7
:101850000587002F3BD12F4E81463378F168043342
:101860009B008A6A5B58811A9B1A99420ED320BF4B
:10187000294A0020536AAB4203D3926A0130914552
:101880003CD803B0C0BCB946B046F0BD00F05AF831
:1018900022002B00121A8B41002B26DB1F4B22004B
:1018A000009330002B000197FFF736FF011E1CDD6F
:1018B000194BA8465A6A954225D920BF3000FFF738
:1018C00083FF154A0020536A9845DAD8D5E7124AB3
:1018D0000020536A8B42D4D3926A0130A242D0D204
:1018E0005B1A5A1E9341D8B2CBE70B4A0020536AC9
:1018F000AB42C6D3926A01209145C2D9EB1A5A1E57
:101900009341D8B2BDE79B6A9C42D7D99542D5D1C5
:10191000D3E7C0467C10002000400540291200108B
:1019200010B5024A0248FFF7A7F910BDA06D0110DB
:10193000FC6D00200300416A0A00986A596A8A42D5
:10194000FAD17047034B596A0A00986A596A914262
:10195000FAD170470040054070B504000D00174AE9
:10196000536A1900966A536A8B42FAD13000190003
:1019700024184D41AB4216D813D0104B2A005B6A95
:101980009D4203D90D494B6A9342FCD3934207D140
:101990000A4A02E0516A994202D1916AA142F9D3FE
:1019A00070BDA642E9D9054B5B6A1C005A1CEFD0FA
:1019B000012201246442E5175242E3E7004005405A
:1019C000F8B5DE464E4657464546E0B58B4605001F
:1019D0000A991800160000F0EFFA0A9B6C001F022B
:1019E000324B64199C46A4006444636881469F425C
:1019F00000D967602B1FDBB29846012B30D9C0237A
:101A000080229B01E31812011A60294BAD0059593D
:101A10009A4600291BD17301E026226853401E40DC
:101A2000802342465B01E3181E60012A30D98023DF
:101A300080229B01E31812011A6053464A466760F0
:101A40005A51F0BCBB46B246A946A046F8BD5869FB
:101A500000F0B2FA013043001B18033BFDD2DAE775
:101A60005B46012BCBD1C02303229B01E3181A60F4
:101A7000023AA3681A42FCD07301E0262268AD0046
:101A800053401E4080230A4A5B019246E3181E60C1
:101A90005A462168514003220A401A6001225B46DF
:101AA0009A40A3681A42FCD0C1E7C04600800040BB
:101AB000146E0020F0B546464F46D646C0B51F000E
:101AC000344B44009C462418A40064446368884650
:101AD0001600FF2B02D880235B006360031FDBB27C
:101AE0009A46012B30D9C02380229B01E3181201B2
:101AF0001A60294B85005959994600291BD1730159
:101B0000E026226853401E40802352465B01E318C2
:101B10001E60012A30D9802380229B01E318120124
:101B20001A6080235B0063604B465F51E0BCBA469D
:101B3000B146A846F0BD586900F03EFA01304300B6
:101B40001B18033BFDD2DAE74346012BCBD1C02360
:101B500003229B01E3181A60023AA3681A42FCD0E0
:101B60007301E0262268850053401E4080230A4A04
:101B70005B019146E3181E604246216851400322F2
:101B80000A401A60012342469340A2681342FCD0E7
:101B9000C1E7C04600800040146E0020014B800069
:101BA000C0587047146E0020F8B5040020481D008E
:101BB00017000E0000F000FA0100380000F0FCF9F8
:101BC000069B29041B0319432368002B1EDB194BBA
:101BD000194DE21853425A4180235B019C4612037F
:101BE000164B62441A60164B1A6017002B689F430D
:101BF000FBD1144B2660E2182123A06013602368F8
:101C0000002BFCDA0823E1601360F8BD3F23226853
:101C10001340B342DBD1A3681B051B0D8342D6D111
:101C2000EE22E368D20213408B42D0D1EDE7C046EA
:101C3000001BB7000040FDBF08C0004000E00040AE
:101C400000F000400430000010B580241C4BE40577
:101C50001C6000281AD001231A4C18431A4BDC616F
:101C60001A4C44401C62596298628021144BC90589
:101C70001960174817490860E021C9041960002A53
:101C800007D18022144B12061A6010BD0E4BD8618A
:101C9000EBE753019B1A9B009A18802312015B0407
:101CA0009A4209D213000D490B60074B5A608022FB
:101CB000094BD2051A60E8E7094B1A00F3E7C04662
:101CC00000B00540D3C007B0008005402D3FF84F5D
:101CD000FCFF01000820014000A00540A87600207C
:101CE000FFFFFF008023024A9B000B43D362704733
:101CF00000800540142310B50100188804331B88A8
:101D0000984710BD162310B50100188802331B88B0
:101D1000984710BDF8B54746CE4680B50F1E19D07E
:101D200014239946043304000025012698464B46A7
:101D30001888434621681B88984701C4431E984170
:101D4000013540420640AF42F1D13000C0BCB94637
:101D5000B046F8BD0126F8E7142370B504001888D2
:101D600004331B880D000549984703000020002C10
:101D700001DB0130A04029009847C04655420000D1
:101D8000AA23064A1B0113602F230549D360054B84
:101D900019605368002BFCDA7047C04600400240CF
:101DA00000B0FA00006002407047C04610B501481C
:101DB000FEF734FFC46D011070B5074D074EB542F4
:101DC00009D20024013E761BB60808CD98472300AF
:101DD0000134B342F9D170BDB06C0110EC6C01104C
:101DE000054B064A06491A60064A074B1A6010005E
:101DF0000B689843FBD1704700E00040BFCDFBFE6D
:101E000008C00040FE7F3C0000F00040044BDB6C4B
:101E1000002B03D18022034BD2021A607047C046C8
:101E2000000011504C201150044A054B1A60054A1D
:101E30001368DB018033FBD17047C046FFFFFF0111
:101E400000F0004008C000404022034B9A675A67E8
:101E50001A67DA667047C04600F0014010B5FEF719
:101E600099FF10BD70B5044D044CA968C022200034
:101E700001F0BAF8AC6070BD00ED00E00000002099
:101E8000002310B5294C82B0A367FFF779FF012228
:101E9000274B1A60636C012BFCD10322254B1A607F
:101EA000224A936B012BFCD1013300930121224A7A
:101EB00022480433FFF778FE052301210093204ACE
:101EC0002048FFF771FE0022022104201E4BFFF77D
:101ED000F1FD0022012105201C4BFFF7EBFD002244
:101EE000002107201A4BFFF7E5FD00220021082002
:101EF000174BFFF7DFFD8023DB000093002200215A
:101F00000920134BFFF75CFD0022104B0021062037
:101F1000FFF7D0FD0420FFF741FE0E4900F04CF81A
:101F200001000020FFF7DEFE02B010BD008000407F
:101F30003CB0004030B00040002F685900800240A3
:101F4000008C864700C00240001BB7004059730751
:101F5000006CDC0240420F0001480421014B18478D
:101F6000A0100020151D0010124A936F9B0815D277
:101F70009066D166002905D0FFE7FFE7FFE7516FC4
:101F8000106F704704B580210906C2175140002820
:101F900000D0C84314F054FE002104BDF0B5146E07
:101FA000556E576F166FFFF7E3FF14665566576758
:101FB0001667F0BD000000D0114A936F9B0813D242
:101FC00010665166002905D0FFE7FFE7FFE7516F74
:101FD000106F704704B5002801D00020C04314F0F2
:101FE0002FFE002104BDC046F0B5146E556E576F2C
:101FF000166FFFF7E5FF1466556657671667F0BD65
:10200000000000D094464A4A926F9208624601D27C
:1020100028E0C046F0B5464E346E756E776F366F69
:1020200000F020F89446424A1466556657671667D2
:102030006246F0BD94463E4A926F9208624601D2D3
:1020400054E0C046F0B53A4E346E756E776F366F19
:1020500000F04CF89446364A146655665767166782
:102060006246F0BD002B24DB11D000293EDA00B51A
:10207000C943404200D1013100F038F8C943404221
:1020800000D10131DB43524200D1013300BD002AAF
:10209000EBD1002801D1002905D00020C90FC907C4
:1020A00001D1C043410800B514F0B2FD0022002365
:1020B00000BD00B500290ADBDB43524200D10133E9
:1020C00000F014F8C943404200D1013100BDC943BA
:1020D000404200D10131DB43524200D1013300F0D4
:1020E00005F8DB43524200D1013300BD002923D162
:1020F000002B18D1002A0CD0BC460D4F38667A66EA
:1021000000210023FFE7FFE7FFE77A6F386F67469C
:102110007047002801D00748010000B514F078FD91
:102120000022002300BD02000B00002000217047A8
:10213000000000D0FFFFFFFF002B00D0BFE0130C1A
:1021400028D1002AE7D080B4114F39667A66FFE7BC
:10215000FFE730B4040C7B6F396F1B0423433B66ED
:102160007A66FFE7FFE7FFE7C04684B27B6F3D6F0B
:102170001B0423433B667A66FFE7FFE7C046002364
:102180002C042D0C7A6F386F00196941B0BC704770
:10219000000000D0F0B594460025140E01D11202C3
:1021A0000835140F01D112010435940F01D19200AA
:1021B0000235D40F01D152000135D40B0134254F23
:1021C0007C66254C3C660E0C93B2FFE7FFE7FFE709
:1021D0003C6F6643360C7703BE467343DF0B5B04EC
:1021E000C01AB941130C7343DB18C91ACE086643F1
:1021F000360CB64493B273431F0F1B01C01AB9418A
:10220000130C73431F0B1B05C01AB941860D8F02B7
:102210003E436643360C092D24DB520A7243801A72
:102220007703460A6643360C16235B1BDE40DF400D
:10223000BF1964466643821B7046043506330100AD
:10224000D940A840C01900D30131A24206D20023D0
:10225000F0BD0000000000D0FFFFFFFF121B0130A7
:10226000F3D3F1E709277F1BFE406446A2B2724315
:10227000801A00D20139220C7243130C1204821A04
:1022800099410B007046043513370100F940A8400E
:10229000801900D30131002B02D1A2420AD2F0BD35
:1022A000013000D30131121BFAD2013BF8D1A24216
:1022B00000D2F0BD013000D30131121BF7E7F0B5B9
:1022C0001C0C00D080E00CB400251C0A04D11B02B9
:1022D000160E3343120208351C0B04D11B01160FD6
:1022E0003343120104359C0B04D19B00960F3343FA
:1022F00092000235DC0B02D192185B4101351C00C3
:10230000971864410134464F7C66464C3C660E0C7F
:10231000FFE7FFE7FFE7C0463C6F6643360C7703F5
:10232000BE4697B27743C01B00D20139C01B00D212
:1023300001399FB27743C91BC91B170C77437E0431
:10234000FF0B801BB941CE086643360C0C2D33DBE6
:10235000B644120B1F053A431B0B97B27743C01BC1
:1023600000D201399FB27743C91B170C77433E0453
:102370003F0C801BB941860D8F023E4366432927DF
:102380007F1BFE400C3D7746AF40BF1930BCA2B268
:10239000ABB272437343801A9941220C7243130CFF
:1023A0001204801A994102000B000137001BA94159
:1023B000F9D2781E0021F0BD0C277F1BFE40774626
:1023C0007F0BAF40FF19E0E700245D1C07D0144FDE
:1023D0007D663966FFE7FFE7FFE7FFE73C6F95B2F1
:1023E0009EB265436643401BB141150C1E0C65430C
:1023F000664336042F0C3E432D04401BB1419942E5
:1024000004D202000B0020000021F0BD01D1904257
:10241000F7D3801A994101349942F2D3F6E70000CC
:10242000000000D0FFFFFFFF48404140484018B483
:102430001B4B5B68FC46019308BD04DFDB260010E4
:1024400018B4174B1B68FC46019308BD00DFE52656
:1024500000109446134A926F920809D2624618B44B
:102460000F4BDB68FC46019308BD0CDF9D29001073
:102470000C4AF0B5146E556E576F166F6246FFF733
:10248000EEFF084A1466556657671667F0BD18B424
:10249000034B9B68FC46019308BD08DF41280010F0
:1024A00050630020000000D0FFB550404240504033
:1024B00059404B40594000E0FFB5154F4C00640DAA
:1024C00003D0BC4204D10C0314D80020090D090527
:1024D0005C00640D03D0BC4204D11C030AD8002266
:1024E0001B0D1B0501264B4009D44B4003D58B42E5
:1024F00000D18242FFBD9942FCD19042FFBD0B4307
:10250000DB1803431343F5D0C9434918FFBD00004E
:10251000FF07000000B5FFF7CFFF804100BDC046B8
:1025200000B5FFF7C1FF01D9002000BD012000BDAB
:1025300000B5FFF7B9FF804100BD012040054A000A
:10254000121804D85A00121801D800207047012030
:10255000704700000021002805D17047C11748408E
:10256000401AFAD0C90713B5064B1B6898470CBC34
:10257000441CA2401005120B0349091B090519430D
:10258000114310BD647700201F04000010B54C00FB
:10259000620D8023D218DB00D21A5B057E2A10DD83
:1025A0009E3A13DACC170903490819435242D14025
:1025B000640001341532202A05DAD0400843604314
:1025C00010BD002010BD0846604310BDC80FC018E4
:1025D000013810BD18B4044B5B6AFC46019308BD7A
:1025E00024DF4D2B001000005063002018B4044B72
:1025F000DB6FFC46019308BD7CDFCD2B0010000093
:1026000050630020132370B51D78012D19D014DDFF
:102610001F48FFF777FB06001E48FFF773FB1E4CB1
:1026200080223100200000F0DFFC022D2DD01B485D
:10263000FFF760FB1A4B186070BD1A4B164CA36471
:10264000F5E7184B144C23606360A360E3602361DB
:102650006361A361E36123626362A362E362236354
:102660006363A363E36323646364A364E364236534
:102670006365A365E36523666366A366E366236714
:102680006367A367E367A364D1E7064BA364CEE760
:102690005344000053460000506300204C330000B8
:1026A00064770020A926001007B5604601880A0A51
:1026B0000230DF2AFAD1C9B2820804D302884088E6
:1026C0000004104300E00068014A5050039007BD29
:1026D000506300200FB403BC0CBCF0B50124E40728
:1026E000634000E0F0B50C0DCF0F661E3605891B68
:1026F000640503D3C943404200D30131640D03D0C4
:10270000661CF60A07D0E41B00207F00791C8907AD
:102710008912803C24031D0DDF0F6E1E36059B1BA6
:102720006D0503D3DB43524200D301336D0D03D05B
:102730006E1CF60A07D0ED1B00227F007B1C9B0756
:102740009B12803D2D032F1B661B58D4A446202EC0
:1027500046DA20371400BC401D00BD40F240334132
:102760002A4380185941CB0F05D0C943C0430022EA
:1027700064425041514162464D0D28D10D0D07D1A3
:1027800000281FD0241940414941013A0D0DF9D0CC
:10279000640006D3013000D30131002C01D1400880
:1027A0004000013A0BD4941CE40A04D112051144F0
:1027B000DB071944F0BDD907204B194300E0D907C6
:1027C0000020F0BD0029DDD1002CDBD1F0BD0132AD
:1027D000C6074008CD0728434908002EE1D0D9E7B5
:1027E0003C2E29DA203E40371400BC4000D00124A2
:1027F000F24014431A00BB401C43D317ACE7AC466D
:10280000202F08DA20360400B4400D00B540F8400F
:1028100039412843A5E73C2F0CDA203F403604001D
:10282000B44000D00124F84004430800B1400C43F8
:10283000C117EAE710001900002494E70000F07FB8
:10284000F0B50C0D661E3605891BE60A6405640D9D
:1028500002D0651CED0A04D0002001210905803C4E
:102860002403A4461C0D671E3F05DB1BE70A640515
:10287000640D02D0651CED0A04D0002201231B0563
:10288000803C24037740644497B484B296B2744386
:10289000070C7E43150C6F4380B26843361802D391
:1028A000012000043F183004350C00197D41844696
:1028B00088B29AB250430C0C62431F0C7C438EB218
:1028C0007E43921902D301263604A4191604170C6C
:1028D0003618674101BC81B29AB25143040C62437D
:1028E0001B0C5C4380B25843121802D30120000431
:1028F00024181004130C401863412D185E41002069
:10290000474106BC88B293B258430C0C6343120C87
:10291000544389B251435B1802D30121090464185E
:1029200019041A0C091862416D18564100204741DC
:1029300018BCF902720D1143F0026A0D1043ED024A
:102940000A0D03D16D1940414941013B124E9B1BB9
:102950007600B3420ED26D0007D3013000267141DC
:102960006646354301D1400840001B05C918E407FD
:102970002144F0BD0BDA013306D1013004D101311D
:102980004F0D01D04908F2E7E1070020F0BD013604
:1029900031050020EBE70000FF030000F0B51C0D3F
:1029A000671E3F05DB1BE70A6405640D02D0661C49
:1029B000F60A04D0002201231B05803C2403D02505
:1029C0002D060026F6432E661E096E66CE0FF619FA
:1029D000B44649004F0D02D07E1CF60A03D00020F9
:1029E0000021403F3F033E1BB600B444013F7F053A
:1029F000C91B49082E6F013676089C02950D2543A8
:102A00007543ED137543AD1301356D10F603761B59
:102A10000CB4CC02450D2C43A2B2B3B25A43270CDE
:102A20007B43350C6F43A4B26C431B1902D30124C2
:102A300024043F191C041D0CA4187D4124196D4168
:102A4000009A91B2ACB26143170C7C432B0C5F43EC
:102A500092B25A43A41802D301221204BF182204CE
:102A6000230C52187B41019C6C431B19520ED90157
:102A70000A434401A01A81B2B2B2514303145A432B
:102A8000360C734387B27743D617D21900277E419D
:102A900036049B191704160C7F185E417316ED1847
:102AA000F301002680337541A90F06D16400690A3D
:102AB000E8055B0A184309D22FE0042294448033CE
:102AC0007541A90AA8059B0A184326D340414941EC
:102AD0002404009A019B0D005543641B4343E41AF0
:102AE00095B286B27543170C7E43030C5F4392B2D6
:102AF0005A43B61802D301221204BF183204330C11
:102B000052197B4152429C41002C02D400220130D8
:102B100051414008CA071043490802B06246D7072E
:102B20009210084BD218084B9A4203D2120589180A
:102B3000C919F0BD0020002A01DC3900F0BD0133C5
:102B40001905F5E7FD030000FE070000002200B5AF
:102B5000203200F004F8080000BD000000220B1530
:102B60000AD410B5944600F05FF81414013400DA6A
:102B70000021CB17144C20470020002170476244ED
:102B8000343A0CD40C2A07DA0400914090405242A7
:102B90002032D440214310BDD843D94310BD203248
:102BA00007D40C469440524220321141D040204379
:102BB00010BD0800C917203203D452422032104100
:102BC00010BD1800190010BD7F2B00104A00520DD7
:102BD000144BD21A13DDFF2A1EDAD205CB0FDB0706
:102BE0001A43C300400F0903490A084310435B001E
:102BF00001D301D0013070474308FBD2704702D0A7
:102C0000C80FC00770470A0312130132F8D1420FF0
:102C1000072AF5D1012200E0FF22C80F0002801828
:102C2000C0057047800300000A0DCC0F531E1B0522
:102C3000C91A520503D3C943404200D30131520D92
:102C400003D0531CDB0A07D0121B00206400611C58
:102C500089078912803A1203014BD21A704700008B
:102C6000FF03000051434343C9188C46110C83B243
:102C70004B4310B4040C614392B280B250436243A0
:102C80001C041B0C001910BC59411304120CC01871
:102C900051416144704700004840414048400E4B5C
:102CA0005B6818470C4B1B6818470C4A936F9B08CE
:102CB00002D2094BDB681847F0B5146E556E576F9A
:102CC000166FFFF7F6FF054A1466556657671667D5
:102CD000F0BD014B9B68184750640020000000D0F5
:102CE00007B548404140484001E0C04607B54200B2
:102CF000120E03D0FF2A03D1420218D8C00DC0051E
:102D00004A00120E03D0FF2A03D14A020FD8C90D80
:102D1000C9050122414005D4414001D5814207BD8A
:102D2000884207BD0143491801D0C043001807BDC0
:102D300000B5FFF7DBFF804100BDC04600B5FFF7DF
:102D4000CFFF804100BD491A002807D108467047CF
:102D5000C10FC90700D54042002817D0F44603B47C
:102D60000B4B1B68984706BC81409E38404280311F
:102D700007D20B0607D04900490AC0051043084393
:102D800060470130F8E7490A8902F5E7704700001B
:102D90006477002041000A0E80231B067E2A0BDD8B
:102DA0009E3A0BDAC1174002400818435242D04005
:102DB000490001314843704700207047C00FC018D8
:102DC00001387047C0420DD300B5400040080021D3
:102DD00000F012F8002801D4404200BD8020000617
:102DE00000BD0000034BDB69FC4618471CDF0D2FBC
:102DF0000010000050640020014B5B6A184700007F
:102E000050640020054A1047C2179142FAD0044B83
:102E1000DB6DFC4618475CDFDB2E0010512D0010E7
:102E200050640020034BDB6FFC4618477CDF252FE6
:102E30000010000050640020132310B512481C78C5
:102E4000FEF760FF0100012C0AD003DD80220F484D
:102E500000F0CAF80E48FEF74DFF0E4B186010BD8B
:102E60000A4C5422200000F0BFF80B4B6365A365A9
:102E7000E36523666366A366E36623676367A36708
:102E8000E3672362E361E5E75346000050640020F6
:102E90004C330000647700209D2E001007B560467B
:102EA00001880A0A0230DF2AFAD1C9B2820804D3A3
:102EB000028840880004104300E00068014A505036
:102EC000039007BD50640020002230B5002906D5CC
:102ED000CD0705434808013A10E0002230B505004F
:102EE0000D430FD0CD170C16AC4205D1C901440ECD
:102EF0002143C0010732F6E70500080052423D3287
:102F00000149884730BD0000EF2900000021C215AB
:102F10008032803201D0024A104700207047000002
:102F2000CD2A0000C30FDB0741000A0E07D0FF2A9D
:102F300008D00909054A8918194340077047190044
:102F4000002070470249C918FAE700000000003865
:102F50000000F07F10B5040012F0B6FB002804D08A
:102F6000034B04199C4200D810BD0248FDF756FEE1
:102F700000000420D06D011070B505000C0012F0A7
:102F8000FDFA6C43002804D0034B04199C4200D87E
:102F900070BD0248FDF742FE00000420D06D011014
:102FA00010B50C0012F0EAFE002804D0034B0419FF
:102FB0009C4200D810BD0248FDF730FE00000420FE
:102FC000D06D011010B512F089FB10BD014804212D
:102FD000014B1847B0100020151D0010014B1B6855
:102FE00018470000B0100020014B5B681847000034
:102FF000B0100020EFF3108C72B6074B1A68002A4D
:10300000FCD0BFF35F8F41680068BFF35F8F002281
:103010001A608CF310887047340100D030B514006A
:103020001D00EFF3108172B6074B1A68002AFCD01E
:10303000BFF35F8F04604560BFF35F8F00221A60AB
:1030400081F3108830BDC046340100D030B5010096
:1030500014001D00EFF3108C72B609480368002BB2
:10306000FCD0BFF35F8F0A684B680C604D60BFF304
:103070005F8F002101608CF310881000190030BDB3
:10308000340100D010B5FFF765FF10BD9A4200D2A1
:10309000885470477047C046F8B557464546DE46E7
:1030A0004E46E0B598460A9B06009A460D9B0F00D7
:1030B000934615009B0710D10B9B0C9A93420CD2A0
:1030C00013005C460B9A9D1A5D442200434601346E
:1030D00039002020B047A542F7D10B9C6319002C82
:1030E00009D01D0053462A1B013C185D3900434698
:1030F000B047002CF6D10D9B9B070ED55B46EC1A12
:103100000C9BA34209D999462A0043463900202046
:103110000134B0470135A145F6D82800F0BCBB46C4
:10312000B246A946A046F8BDF0B54F464646D6463B
:10313000C0B584B098460EAB1B7894469946129B56
:103140000D9C109F119E9A0724D4002E6AD1BC4278
:1031500020D201221A409246202C00D1CBE00C9ABA
:10316000551E302201E0202C30D001342A55A742D0
:10317000F9D85246002A0DD0B4420BD20C9A551EF3
:103180003022202C02D126E0202C61D001342A5597
:10319000B442F9D1DA0634D55A0562D4002C5CD198
:1031A0000F9A102A00D191E0022A00D1A1E030222A
:1031B0000C9C227001244A46002A5CD15A0700D494
:1031C0007DE02B220C9D2A5501341CE05246002A3A
:1031D00002D0202E3CD92024DA0614D55A0512D468
:1031E000202F00D197E0202E3BD120261F22340033
:1031F0000F9D102D00D181E0022D4CD030250C9F69
:10320000BD54202CD7D103930C9B624600930296A9
:1032100043460194FFF740FF04B0E0BCBA46B14614
:10322000A846F0BD012215001D40AA461A4227D02B
:103230004A46002A33D10C321A4230D1BC429BD2CA
:10324000202C00D08BE7202EC5D8DA06A4D4DAE7EC
:103250002024DA06D7D55A0503D4A74221D0B44298
:103260001FD00F9A102A21D0022A10D0202CCAD0A9
:1032700022000134C2E72D220C9D2A550134C2E7F9
:10328000BC4200D386E7202C00D068E7E1E7202C81
:10329000B9D02200013462250C9FBD54E6E7013EFF
:1032A000CCE7621E012C00D17AE7A1E79A0616D47A
:1032B000202CA8D078220C9D2A550134D6E71A0775
:1032C000A1D520220C9D2A5501349CE79A060ED4E4
:1032D00078220C9C22703022627002246BE7202C32
:1032E00091D058250C9A121915700134BEE7582256
:1032F000EFE76222EDE7002AA7D1AAE7023C9D068C
:1033000004D478250C9F3D551400B1E758250C9F37
:103310003D551400ACE71F226AE7C04610B50028EF
:1033200000D110BD01F008FBFBE7C046F0B55746E1
:103330004E464546DE46E0B599B0824689469046FF
:103340000993229A239B10001900FFF7F6F8002832
:1033500000D0C8E0229823990122D54B5242FFF7B2
:10336000E7F8002800D0BEE0229823990122D14B33
:103370005242FFF7CFF8002800D0B4E022982399FA
:1033800000220023FFF7C6F8002800D0E9E1229EC2
:10339000239F8023269ADB001A400D92269A1A4218
:1033A00001D1062324933B00334300D0B4E0269B95
:1033B0001B0500D5BFE1002300240A930B940023D2
:1033C00004250C93259B0024AB4200D95C1B0223EF
:1033D000269A1A400D92269A134203D06B426B41F3
:1033E0005B421C400C9B002B07D00A9A0B9B3000C1
:1033F0003900FFF72EF806000F00229823990022CB
:103400000023FFF787F8002803D0802109067B18E6
:103410001F00269AA84B009601971340099E04931B
:10342000249B03940293424633004946504600F0E1
:10343000A7F90400002D67D02020269A49460240B3
:1034400013005A4253415B42621C18400A923300F7
:1034500022004530D0470C9A6F1ED317D4185C4019
:10346000D30F9B46002501E0202D13D008AA9446D7
:103470001F23200063440A2101355E19FEF79CFDDD
:103480003031317020000A21FEF796FD260004003D
:10349000092EE9D805230693002304930A330393E6
:1034A0005B46099E029310AB0A9A0093494633008B
:1034B000504605970195FFF737FE0D9A0400002A44
:1034C00022D04246851A259AAA421DD9B0465746AF
:1034D000160022004346494620200135B8470134F2
:1034E000AE42F6D810E0269B42460493259B4946FF
:1034F0000393249B50460293229B239C00930194A8
:10350000099B00F03DF90400200019B0F0BCBB4657
:10351000B246A946A046F0BD684B78009C46400DD7
:103520006044FFF71BF8664A664BFEF7B0FF664A39
:10353000664BFEF785FF664A3B031B0B1A430400EC
:103540000D00644B110030000022FEF770FF624A4C
:10355000624BFEF79CFF02000B0020002900FEF7E3
:103560006FFFFFF713F80C90FEF7F8FF5C4A5D4B16
:1035700004000D00FEF78BFF00225B4BFEF760FF9F
:10358000FFF704F8594A8346594B20002900FEF7FB
:103590007EFF040058460D00FEF7E0FF554A564BEB
:1035A000FEF775FF02000B0020002900FEF73FFF29
:1035B00002000B000A900B91FEF769FF04000D005A
:1035C0000A980B9902000B00FEF73AFF00220E90BA
:1035D0000F914A4B20002900FEF73BFF0022484B89
:1035E000FEF72EFF02000B0020002900FEF731FF3E
:1035F0000022444BFEF724FF02000B0020002900AC
:10360000FEF727FF0A9A0B9B0D0080210400C905D5
:103610000020FEF70CFF02000B0020002900FEF73F
:103620000FFF394C02000B000E980F99FEF711FFA7
:103630005C440022264BFEF703FF23050022FEF721
:1036400026FF04000D0002000B00300039000A9430
:103650000B95FEF75FFF00285ED123002A00C625E8
:103660000C9963318D42AD4126996D4204350905AF
:1036700000D4A7E6134364D030003900234A244B1A
:10368000FEF74EFF002807D0002230003900214B02
:10369000FEF740FF002854D1249B002B00D191E677
:1036A0000D9B5A1E9341249AD31A24938AE6C0464E
:1036B000FFFFEF7FFFFFEFFFFFF7FFFF01FCFFFFC3
:1036C000FB799F501344D33FB3C8608B288AC63F11
:1036D0000000F03F0000F83F61436F63A787D23FCF
:1036E00071A379094F930A400000E03F1655B5BB1E
:1036F000B16B0240EF39FAFE422EE63F00002C404B
:103700000000244000001840FF0300002D431CEB84
:10371000E2361A3F80842E410C9B0022013B0C9321
:103720002000164B2900FEF794FE0A00010003005A
:103730000A910B9293E7002300240A930B94002331
:103740000C93249A0C9B9A4214DDD31A013B2493C8
:103750008023269ADB001A430023002526920C932F
:1037600030E6802212069446229B1E00239B63446F
:103770001F000EE600232493EAE7C0460000244021
:10378000F0B54546DE464E465746E0B595B08B4609
:10379000904699461E9A1F9B0A9019001000209D82
:1037A000FEF7CBFE002800D0B0E11E981F99012241
:1037B000C74B5242FEF7AEFE002800D037E11E98FC
:1037C0001F990122C34B5242FEF7B2FE002800D0DF
:1037D000A7E01E981F990022BF4BFEF7A9FE002804
:1037E00000D088E01E981F990022BC4BFEF792FE85
:1037F000002800D07FE01E981F9900220023FEF7CA
:1038000089FE002800D0FAE000230B938023229C3D
:10381000229ADB001C401A4200D102E1092D00D897
:103820007EE106A98C462C00172200233021093C9A
:1038300062440133D154EF1A202B00D132E1A3426C
:10384000F7D10022A44B069207931E981F99FEF70A
:103850009DFE0500FEF782FE02000B001E981F99D8
:10386000FEF7E5FD069A079BFEF711FE0890099109
:10387000FEF7B0FE0600FEF76DFE02000B00089892
:103880000999FEF7D4FD0022954B08900991FEF7A7
:103890004FFE002800D1D2E001363000FEF75AFE7C
:1038A000069A079BFEF73CFE002801D00026013552
:1038B000AA46002F00D098E02800FEF74FFE020035
:1038C0000B001E981F99FEF7B2FD854B00220600E3
:1038D0000F00FEF71FFE0CAB9A46002845D10022D0
:1038E000300039007E4BFEF723FE00283DD1EB0768
:1038F0003BD5013539E0229B42460493219B594632
:1039000003930A981E9B1F9C0295009301944B46BB
:10391000FFF70CFD15B0F0BCBB46B246A946A04669
:10392000F0BD229B5B0767D403226E4B2299019264
:10393000039121990291009342464B4659460A98B9
:10394000FFF7AAFBE6E706AA94461723280063447C
:103950000A2101341E19FEF707FB303128003170AF
:103960000A21FEF701FB051E76D0202CEBD10323A4
:10397000229A1340012B1DD1219B002B1AD00B9BA7
:10398000002B00D0BBE0229A0C33134200D0B6E0EB
:10399000219BA34200D887E006AB9C461722302328
:1039A000624404E02199013413558C4259D0202CF3
:1039B000F8D12024229B01940393219B0293534628
:1039C000B9E706AA944617230A216344300001345C
:1039D0001D19FEF7F1FA3031297030000A21013F3C
:1039E000FEF7EAFA092E46D90600202CE9D1554601
:1039F0000CAB20249A46B8E704223B4B96E71E9A6C
:103A00001F9B00200021FEF712FD01230B93802352
:103A1000229C229ADB001E901F911C401A4200D06B
:103A2000FCE60022314B0627069207930DE7229B06
:103A30000393219B0293042301932D4B7BE70022E8
:103A400008980999264BFEF765FD002800D02FE75E
:103A5000002E4FD101362BE70323229A1340012B6E
:103A600068D0202CA6D00B9B002B1FD02D235246B4
:103A7000135501349EE75546202CB9D030223B190E
:103A8000002F4BD0172006A9013409180A55202C05
:103A9000AED09C42F6D10CAA92462E2251465C1C16
:103AA000CA5462E72024CCE6202C83D0229B5B07FB
:103AB00008D4229B1B0700D47CE7202352461355D1
:103AC000013477E72B2352461355013472E7C04681
:103AD000FFFFEFFFFFFFEF7F65CDCD4165CDCDC18E
:103AE0000000E03F806E0110786E011080842E414E
:103AF000886E0110F30700D4DAE60136D8E6219B80
:103B0000013B2193A34200D946E7AAE7229B0393F6
:103B1000219B029303230193084B0CE72300BAE790
:103B2000074BEA009B185C681B682F0006930794FC
:103B300000248AE6219B002B93D020E7846E01109D
:103B400030700110F0B5DE4657464E464546E0B5AA
:103B50009FB01C00289B93460A93CC4ACC4B8A46C4
:103B600009901A60002900D14DE100232078994680
:103B7000002800D14FE1C74B4D460893C64B0D932B
:103B80000AE02A006E1C5B46099D5146A847350095
:103B900001342078002872D02528F2D110239946CC
:103BA000083B9846043B00219C46022701342078BC
:103BB00026000300203BDBB2102B03D8089A9B00A1
:103BC000D3589F460300303B092B6ED900272A2883
:103BD00000D18AE000230B932E2800D176E0030069
:103BE000683BDBB2122B1BD8AC4C9B00E3589F46C2
:103BF000012301341943DAE739430134D7E7634637
:103C000001341943D3E74B4601341943CFE7434608
:103C100001341943CBE780235B00707819430136E8
:103C200067280AD824281FD90300253BDBB2422B82
:103C30001AD80D9A9B00D3589F460300693BDBB20C
:103C40000F2B11D801249C40954AA446904614405D
:103C50000C9462464446224200D025E20A2B00D151
:103C600001E1072B00D1D8E0099C2A005B465146B0
:103C7000A04770786F1C741C3D0000288CD1A946A9
:103C80002C00CB4503D801235B425B4499465B463D
:103C90004A4651460020099DA84720001FB0F0BCAD
:103CA000BB46B246A946A046F0BD0027BB00DF19BF
:103CB00001367F003F183078303F0300303B092B3E
:103CC000F4D900230B932E2800D088E78023707846
:103CD000DB0019430300303B741C092B00D82CE196
:103CE0002A2800D138E1260079E70A9B80CB002FF3
:103CF00003DB60780A93661C6CE70222607811434C
:103D00007F420A93661C65E7672800D1C8E147280F
:103D100000D104E2452800D104E207200A9B049167
:103D20000733834319000B9A039702920CC9099831
:103D3000009201930A912A005B465146FFF7F6FA7A
:103D4000741C050025E770786C2800D10DE28023F3
:103D50005B001943013663E780239B0070781943A9
:103D600001365DE77078682800D1F9E180230136DB
:103D7000194355E7462800D18FE107200A9B04919B
:103D80000733834319000B9A039702920CC90998D1
:103D9000009201930A912A005B465146FFF7F0FC1E
:103DA000741C0500F5E62A00099C5B465146252057
:103DB0006F1CA0473D00741CEBE6890700D4DEE1D0
:103DC0000A9B2A0098466B1C9946434601CB5146F4
:103DD0009846099C5B46C0B2A047ED19012F00D858
:103DE00093E24C46B1465646099F22005B46013499
:103DF00031002020B847AC42F7D1B24643464E4688
:103E00000A93741CC5E6274B207809930023994632
:103E1000002800D0AFE6002433E70A9B1A0008CA46
:103E20009046002B00D1A7E0212008430EA98C4624
:103E30001F2262440F27AC46814615000C9C02E00D
:103E4000202C0CD01300380018400100373109280D
:103E500000D80739013429551A090F2BF0D86546C7
:103E600048460C9494E00A9B1A0008CA12920B9AD6
:103E7000002A7BD102241A786442002A1DD0013422
:103E800018199C461C00030010E0C046453B00107A
:103E9000A4760020906E0110206F0110D46E0110E6
:103EA00041900000953000109C4203D060780134AE
:103EB0000028F9D16346E01A0C908020C0008446A7
:103EC000084080466046014204D00B980C9C844216
:103ED00000D90C900220844608400A9060460842AF
:103EE00000D189E1101E00D170E14246002A00D1C4
:103EF0001BE10B9A5B1B9046A84444462A00B84637
:103F000099465746B246099E09E05B463900551C62
:103F1000B0474B46585D002800D12CE12A0094425E
:103F2000F3D156462500BA4647460A9B002B00D0DF
:103F30004CE1129B741C0A932BE6002293009B1801
:103F40005B0001341A182078303A0300303B092B0B
:103F5000F4D926000B9242E60A9B023604CBD043EA
:103F6000C01702400B9230780A9338E61A78002A7C
:103F7000A3D00B98441E82E71023080080279843A3
:103F8000113318430B00FF003B40394200D14DE78D
:103F9000082305930B9B2A0004931023039300230B
:103FA00002930C9B0690019316AB009351465B461F
:103FB0000998FFF7B9F843460500741C0A93E8E531
:103FC000622800D1A6E1582800D1B1E180230A007F
:103FD000DB001A409046194200D189E11123994330
:103FE0008C46802362469B001A40100062461A42AB
:103FF00000D023E1802364465B001C401A4200D0BD
:1040000032E263465B0600D56BE163460A991B0604
:1040100000D4DBE208C91BB2DA179818504080B20E
:104020000A91DA0F0C92002B00D118E280460EAAFA
:1040300091461F234B441395E14645461297B046DF
:104040001E0001E0202C0FD028000A21FDF7B4FF4C
:10405000013437193031397028000A21FDF7ACFFDF
:104060002F000500092FEDD84646CC46129F139D20
:10407000634606930B9B059704930A2303930C9BBB
:10408000029316AB2A000194009351465B460998AF
:10409000FFF74AF8741C05007BE5202319436CE602
:1040A00080231B01194338E6782800D07CE1802367
:1040B0000A00DB001A409146194200D1A5E20D2307
:1040C0009943080003330C93802302009B001A409D
:1040D0009046184200D078E1802304005B001C4029
:1040E000184200D007E2430600D453E2FF210A9BA6
:1040F00004CB0A4090460A934346002B00D026E1A9
:10410000103398434B46002B00D120E100240B9B39
:10411000069004930C9B059703930023B0E780233C
:104120001B01194320231943F7E55B1B99460C9BA0
:10413000099C98465B46B3465646BA461F002A007D
:104140003B003100A0474B460135585D0028F6D1B1
:1041500043460C933B005746B2465E469B46E4E618
:10416000C023B078194302365AE5C0239B00B078CB
:104170001943023654E55646BA464746D5E6012F5E
:1041800000D832E26B1E9846B8442C00A94645463A
:10419000B8465746B246099E22005B4601343900B4
:1041A0002020B047AC42F7D10A9B564601CBBA4615
:1041B0004746984622005B46099C5146C0B2A0473C
:1041C0004D464346ED190A93741CE2E40C9BA84645
:1041D0009F4200D8ADE64446B04656467D19099F39
:1041E000ED1A22005B46013431002020B847AC4272
:1041F000F7D1B24646469CE60C98874200D8F0E1DB
:10420000424698467919B9465746B246099E0C1A55
:104210000C922A005B46013539002020B047A542A8
:10422000F7D15646BA464F4643460C9A90467A1CFA
:104230000C921A78101E00D057E67AE60822072161
:1042400091460A9B07338B4399444A460ACB0C009C
:104250000A921C43DA0F002C4ED0D817040010909D
:104260004C4011900E94109811990C005C400F94E2
:104270000E9B0F9C1B1A8C410E930F940EA988461F
:104280001F23002443441297B046270013951E00B5
:104290000E9C0F9DE1460C9201E0202F10D02000D3
:1042A00029000A220023FDF7C5FE013730322B001A
:1042B000F2550D0022000400002BEED1092AECD8A3
:1042C0004646CC460E940F950C9A3C00139D129FC7
:1042D000634606930B9B059704930A23029203936C
:1042E000CFE6FF230A9904C9134018000A9198E603
:1042F000102399438C4674E643460024002BE7D1F3
:10430000002300240E930F94B8E743464D460A93CA
:10431000741C3EE480230A00DB001A4091461942D7
:1043200000D140E10D2399430B3B08000C93CBE6F1
:1043300080230A00DB001A409146194200D162E155
:104340000D2320209943033308430C93BCE66123DB
:10435000810600D541230EA91F228C46DBB26244A0
:104360000A3B13971495814645460C9FB04612931D
:10437000160008E03033DBB201343355BD420ED3B2
:10438000202C0CD0050039002800FDF715FECBB21B
:104390000929EFD9129A94466344DBB2ECE746460A
:1043A0004846139F149DB2E66F2800D03CE10C23D1
:1043B0000800984380230A00DB001A409146194206
:1043C00000D02AE108230C937EE60A99FA3BFF3BD2
:1043D0000731994301339C468C4463464A680A93EB
:1043E0000B6890469C461343191E06D14B4610316C
:1043F00000248843002B00D089E66121830600D584
:1044000041210EAA91461F234B449946C9B20C9BE9
:104410000A3913971495159645464E46002467466B
:104420009846814612910CE03032D2B2002301341A
:104430003255AB4200D1BCE0202C00D1BCE00700DB
:104440000D004246002338002900FDF7F3FDD2B2EB
:10445000092AE9D9129B9C466244D2B2E6E7434658
:10446000002B00D004E6E2E50A9C08CCDA0F139298
:10447000002B00D1A5E0D9175B184B4098460EAA37
:1044800091461F234B440C95A14645461296E046A3
:1044900006001C000A9701E0202E0FD028000A21F8
:1044A000FDF78AFD0136A7193031397028000A213D
:1044B000FDF782FD2F000500092FEDD8C4464C46BC
:1044C00030000A9F0C9D129E634606930B9B2A00A8
:1044D00004930A230393139B0190029316AB00935A
:1044E00051465B4609980597FEF71EFE0A940500A3
:1044F000741CFFF74EFB0A9B10CB1493002C04D1C5
:10450000102398434B46002B2CD16123810600D504
:1045100041230EA91F228C46DBB262440A3B12974C
:104520001395814645460C9FB0460A93160008E055
:104530003033DBB201357355BC420ED3202D0CD085
:10454000040039002000FDF737FDCBB20929EFD96F
:104550000A9A94466344DBB2ECE748464646129F0B
:10456000A846139D0B9B2A0004930C9B0690039373
:10457000002302934346019316AB009351465B46DA
:1045800009980597FEF7D0FD149B05000A93741C4B
:10459000FFF7FFFA03061FD50A9B02CB09040A0C9A
:1045A00090460A93A8E50C2399430A3B08000C9314
:1045B0008AE5B84500D83FE74846139F149D159EED
:1045C000A5E54346002B00D07EE758E708C9DA1777
:1045D000981850400A9124E50A9B04CB90460A9310
:1045E0008AE5010001310C9124E60A9F6C1C01CF81
:1045F0002A005B46099D5146C0B2A84725000A978C
:10460000741CFFF7C6FA202319430C239943002397
:104610009946103308000C9356E508238C460C93FA
:104620000D23604698434FE510230A009A439446B1
:10463000692808D180230A00DB001A4090461942FD
:1046400000D1CEE4CAE41C230800984380230A006A
:10465000DB001A409146194202D10A230C9333E53C
:104660000A230C93DCE7C0460CB430B585B008AC27
:1046700008CC064D0A000094010028000394FFF7BF
:1046800061FA05B030BC08BC02B018478D3000108C
:1046900010B5054C82B0009313000A000100200001
:1046A000FFF750FA02B010BD8D30001010B5094A66
:1046B0000300146884B0002C08D001220091064841
:1046C000524203A9A047012004B010BD00F080F9B8
:1046D0000020F9E7A47600201D33001000BEFDE79E
:1046E000094A03001068002805D00849C3188B4206
:1046F00007D81360704706480449C31810608B42FE
:10470000F7D901204042F5E7907200200000042014
:104710007C78002010B5FFF7E1FFC04670B5FDF7CB
:104720004BFB074D074EB54209D20024013E761BD4
:10473000B60808CD984723000134B342F9D170BDC3
:10474000EC6C0110086D0110030010B50800110099
:104750001B68984710BDC046030010B50800110043
:104760001B68984710BDC046F0B5DE4657464E461A
:104770004546E0B585B017001C0006000D00FDF7AA
:10478000E1F80023314A12184B41802109068B427F
:1047900002D301222E4B52422E4908008A4612F0C3
:1047A0006FFA01906B1C03D1300011F095FD0500EC
:1047B000002C26D0284B9846284B1C68002C15D07E
:1047C000002F21D1264F02E02469002C0ED023684F
:1047D000002BF9D03B68002B01D0A342F4D120007C
:1047E0002A003100C0472469002CF0D1019B002B26
:1047F00028D1280005B0F0BCBB46B246A946A04669
:10480000F0BD184B9846D7E7154B994602ABDF1D14
:104810000A239B4602E02469002CE7D02368002B82
:10482000F9D04B461B68002B01D0A342F3D12A00DC
:1048300031002000C0475B460122390020003B7058
:10484000C047E8E7504612F0DBF9D2E740420F00DC
:10485000FFFFFF7F941B0020594700103472002097
:104860003C720020494700100A4A1368002B05D10A
:104870000CE01A001B691032002B07D09842F8D1C7
:10488000002902D103691360016170470029FCD03F
:104890001060FAE73472002010B500F0D9FA10BDAC
:1048A000F0B5CE464746040080B583B0FDF74AF820
:1048B00026000027802336184F411B069F4202D353
:1048C0000126194F7642194BB9469846184D434672
:1048D0001C68002C03D116E02469002C13D02B682F
:1048E000002B01D0A342F7D1A368002BF4D0012103
:1048F00001A898470028EFDD6B46187903B0C0BCCB
:10490000B946B046F0BD0B4B5A6A914507D89B6A31
:10491000B34202D302204042F0E79145FAD1012090
:104920000021FDF719F8D2E7FFFFFF7F3472002066
:104930003C72002000400540F0B5CE46474680B5A9
:1049400083B06B460600DD1D2870FCF7FBFF0023DB
:104950001A4A12184B41802109068B4202D30122C8
:10496000174B524217490800884612F089F9164B36
:1049700081461C68002C14D0144F02E02469002CDE
:104980000FD02368002BF9D03B68002B01D0A34245
:10499000F4D1200001222900FFF7DEFE2469002C5B
:1049A000EFD14B46002B05D1300003B0C0BCB94657
:1049B000B046F0BD404612F023F9F5E740420F0043
:1049C000FFFFFF7F941B0020347200203C72002008
:1049D00070B5040011F080FC0123010005000122E4
:1049E0002000FFF7C1FE084B1C68002C06D063684E
:1049F000002B05D098472469002CF8D1280070BD01
:104A00002469002CF3D1F9E7347200207047C046C6
:104A10000022014B1A707047787800204B790020F3
:104A2000FF2B0BD18B79002B08D1CB79012B05D132
:104A3000082A03D9024B8A7809301A707047C04699
:104A4000787800200120704710B5012901D001209D
:104A500010BD13495379107909781B0203430020D4
:104A60009942F5D15378012B08D0022BF0D10020C8
:104A700064220021FDF7E8F80120E9E7D378917876
:104A80001B021943DB0507D54A0A100001231A400F
:104A90007E331940FDF760F901204A0A4042F5E7EC
:104AA00078780020004870474871011070B5050003
:104AB00014000120012909D153780020012B05D1D0
:104AC000637912791B021343072B00D070BD2100BC
:104AD0002800024A9F3301F051FAF7E7A070011055
:104AE0000123037000487047807001104B780A78EA
:104AF0001B0213438A7810B512041A43CB781B06A5
:104B000013439622D200934200D010BD0022012010
:104B100011004042FDF720F9024B1860024B19606A
:104B20007047C046F06D0020F46D002010B5024BB8
:104B30001878FCF76DF910BD79780020154B70B529
:104B40001A68002A22D0EFF3108172B6106800288C
:104B5000FCD0BFF35F8F00200F4A596010701B68B4
:104B6000BFF35F8F186081F31088002400250B4E7F
:104B70003078FCF741F9002804D1002400252900F1
:104B8000200070BD3078FCF743F9F8E7FA240025DF
:104B9000A400ECE7EC7600207A78002079780020F9
:104BA00070B5040000200E0001F000FB002836D094
:104BB000002001F013FB002831D0FCF7C3FE0023D6
:104BC000184A12184B41802109068B4216D2164D05
:104BD000280012F055F8002821D0002001F0E6FA54
:104BE00000280FD101200021404200F0F7FC0324EF
:104BF0006442280012F004F8200070BD01220B4B23
:104C00005242E4E7002001F0E9FA0028EAD021004E
:104C10003200002001F0EEFA041EEAD1E7E7032497
:104C20006442E9E740420F007C770020FFFFFF7FEE
:104C300010B5FCF787FE00230E4A12184B41802165
:104C400009068B4202D301220B4B52420B4C20002F
:104C500012F016F800280CD001200021404200F08C
:104C6000BDFC002001F012FB0028F5D1200011F05E
:104C7000C7FF10BD40420F00FFFFFF7F7C77002081
:104C8000F8B5DE46574680B505000C00FCF75AFE25
:104C90000023374A12184B41802109068B4202D368
:104CA0000122344B5242344908008A4611F0E8FF91
:104CB000002803D1C0BCBB46B246F8BD002001F0BD
:104CC00075FA00284AD00026002C43DD2B4B9B466A
:104CD00014E0A919002001F015FB070001200021B4
:104CE000404200F07BFC002001F0D0FAFCF72AFEE5
:104CF000224BF61918605960B4422BDD002001F0F8
:104D000021FBA71B0200B84200DD3A00002AE0D1D7
:104D100001200021404200F061FC002001F0B6FAC1
:104D2000002001F043FA002814D0002001F00AFB13
:104D30000028E1D1FCF706FE5B460F001A685B68AD
:104D4000002184460E4812184B419F4202D8D3D10D
:104D50009445D1D9504611F053FFABE70020002114
:104D6000064B18605960504611F04AFFA2E7C04652
:104D700040420F00FFFFFF7F7C7700204863002048
:104D800020A1070030B52B4C85B00021200011F088
:104D90005FFF00281CD1284B1A68002A16D0EFF3B9
:104DA000108172B610680028FCD0BFF35F8F012419
:104DB0002248596002781B68D2B20470BFF35F8F3B
:104DC0000020186081F31088002A17D005B030BD8C
:104DD00001200021404200F001FC002001F0FEF91A
:104DE0000500200011F00CFF002DEFD0144B1B68C4
:104DF000002BEBD0134A10689847E7E7FCF71EFC3E
:104E00000400FCF79FFDFA220023920012184B4188
:104E1000802109068B4202D301220B4B5242012111
:104E2000029100210191094920000091FCF70AFC40
:104E3000CCE7C0467C770020EC7600207A78002012
:104E4000F06D0020F46D0020FFFFFF7F3D4B001050
:104E5000D02310B51B0684B01C68FCF7EFFBFCF7F1
:104E6000EDFCA04202D0002004B010BD294B1B78FD
:104E700001F070FD28480368002B47D00120FCF7A3
:104E800063F9FF23254C264920701840FBF7DEFF0D
:104E900020780121FBF79EFF0520FBF7C1FF0028CA
:104EA00026D1082200211F48FEF798F8FCF7C6FB20
:104EB0000400FCF747FDFA220023920012184B4130
:104EC000802109068B4202D30122174B5242012155
:104ED000029100210191154920000091FCF7B2FBDD
:104EE0000028C0DB12480121FFF7BEFC0120BBE710
:104EF0000120FBF73DFF0B4B01001800FCF78AF97E
:104F0000002205200B49FBF7CBFFEBE7FCF766F926
:104F1000B4E7C046BC8401107C770020797800207B
:104F2000854D0010EC760020FFFFFF7F3D4B001009
:104F3000C01000202D4B0010004870472472011053
:104F400000487047D071011010B50400174803786D
:104F5000002B20D0002C06D1154B16484380063B71
:104F6000FF3B038010BD052C19D8134BA400E0585B
:104F70001249002304E001330A800231132B10D0C0
:104F8000C25C002AF7D1C0220133DBB25B00920081
:104F900008481343E5E7112100F01AF8DAE700208A
:104FA000E0E7CA2303489B00DBE7C04608780020FF
:104FB000090400000C720020B87101100E7200206C
:104FC00010B5024800F0D8F810BDC0462077002088
:104FD00030B54B1E012900D1A7E0664A11780D11AA
:104FE0002C0030349F2900D9A2E00470012B00D19D
:104FF000BEE00F21147821400C003034092900D97B
:1050000098E04470022B00D1B2E0547825112900B9
:1050100030319F2C00D990E08170032B00D1A7E0A4
:105020000F2121400C003034092900D987E0C470D9
:10503000042B00D19CE094782511290030319F2C5D
:1050400000D97FE00171052B00D191E00F212140B3
:105050000C003034092900D976E04471062B00D1C8
:1050600086E0D4782511290030319F2C00D96EE0DC
:105070008171072B00D17BE00F2121400C003034DF
:10508000092966D8C471082B00D171E01479251163
:10509000290030319F2C5FD80172092B68D00F2175
:1050A00021400C003034092958D844720A2B5FD0B3
:1050B00054792511290030319F2C52D881720B2B45
:1050C00056D00F2121400C00303409294BD8C4722E
:1050D0000C2B4DD094792511290030319F2C00D90B
:1050E000073101730D2B43D00F2121400C003034C8
:1050F000092901D937310C0044730E2B38D0D179EE
:105100000C11220030329F2900D9073282730F2BF5
:105110002ED00F220A4011003731092A01D830322F
:105120001100C173102B23D010300023037030BD49
:1051300007345AE737310C0063E707316CE7373142
:105140000C0074E707317DE737310C0085E7073144
:105150008EE737310C0095E707319DE737310C00BA
:10516000A3E70731AAE737310C00C4720C2BB1D189
:10517000C018DAE72077002030B5002589B0040098
:105180000922002101A80095FDF728FF092200212E
:1051900005A80495FDF722FF4B236A466846137065
:1051A00004A90D2211F024FD1521082220006944D4
:1051B000FDF71AFF09B030BDF8B500F03DF90C233A
:1051C000184DFF22AB6705201749FBF769FE174C06
:1051D000402200212000FDF701FF40270023012687
:1051E0002121134A66702783A260136063545F31E4
:1051F0006184453963540F4A0F496360E260278731
:10520000A1620B606362E26211F032FD80239B05B4
:105210002E64EB649023094AEA508022084B520224
:10522000DA64F8BD000011509D0400209472002043
:1052300084001050000110508000105010D0010068
:105240000020115010B501210520FBF7C3FD10BD52
:1052500010B500220021024800F00EF910BDC04632
:10526000B4720020044B1970002904D080219023CF
:10527000024A8902D15070477178002000201150F5
:105280000B785B0602D14B78052B00D070478A78EB
:10529000014B1A60FAE7C04600001150F0B5C6464F
:1052A00000B5CC7888780A794B797F21A407014032
:1052B0001B02C50913434F00A20F1400324E7A1986
:1052C0005201B218907001206840507000205B05B8
:1052D0005B0DD0701383D4768046CA00012D33D085
:1052E0002A488446880162448446B4446046826009
:1052F00040461060002933D0254AC90090466246D6
:10530000414451603F223F339343022C00D15B0064
:1053100020487A1901685201B218D1601E4ACB1890
:10532000036051405A40802388465B019A4228D846
:105330004346A4061C4380237F197F01F619726837
:105340001B062343136011E014488446880162441D
:105350008446B4446046826240461060002909D108
:1053600000236D0175196B600D4BEB60012080BC53
:10537000B846F0BD084AC9009046624641445162B1
:10538000C0E7FCF713FDD3E79472002084001050AF
:1053900004001050D0760020000010508000105003
:1053A0000001105010B511F063FC10BD10B57F2046
:1053B0000C0020404000E409110000191A00034BC2
:1053C0004001C01800F058F8012010BD9472002070
:1053D0007F23180010B508400B420BD0C90980226A
:1053E0004000074B401840010021C018120111F085
:1053F00057FC10BD0223034AC9095B1A9366EEE706
:1054000094720020002011507F22130010B50B4031
:105410000A4200D110BDC9095B005B1804485B015A
:10542000C018002300220349C37011F039FCF1E7D2
:1054300094720020FFF7FFFF80220A4B520410B540
:105440001A60094B09491A6010000B689843FBD198
:105450008022002152010648FDF7C0FD0922054BBC
:105460005A6710BD00E0004000F0004008C0004056
:105470000000105000001150002310B5C38201330A
:10548000828283760161040011F0CAFB002804D0F7
:1054900080219023074A8902D150200011F0C8FBD7
:1054A000002802D00123237710BD200011F0F0FB6B
:1054B000FAE7C046002011507047C0467047C0460A
:1054C00000207047002070477047C0467047C046B4
:1054D0007047C0467047C046024B5878431E9841FB
:1054E000C0B27047F4680020024B18784007C00F24
:1054F0007047C046F4680020F8B54746CE4680B5F0
:105500002B4F06003B78FF2B04D00120C0BCB946CE
:10551000B046F8BD002154222648FDF75FFD002269
:10552000254C264B20001A70FBF758FE244B1C60BC
:10553000244C2000143CFBF75FFE200001F0E0FD4E
:10554000214B224D1C60224B002B27D02800FFF757
:10555000C7FA204B2A7818601F49002489461D4944
:105560000023884610E043461B6862019B18002B0D
:1055700012D05B68002B0FD098472A780134E4B230
:10558000511C2300A1420BDBA242ECD89B1A5B0109
:105590004B445B68002BEFD10020B7E72A78DBE7AC
:1055A00030003E70FFF708FE3000FFF74BFEACE71F
:1055B000F0100020F4680020AC6800207278002011
:1055C00048690020E81000204C6900207078002015
:1055D000E14A0010C86500203C730110F0B5DE46BA
:1055E00057464E464546E0B5CE4B91B002931B78E8
:1055F000FF2B00D138E1CC4BCC4E9B465F46CC4BC9
:105600000DAC0193CB4B009335686A69EFF31081C1
:1056100072B61368002BFCD0BFF35F8FA96128001E
:10562000210001F0AFFB6A69AB69BFF35F8F002116
:10563000116083F31088002800D115E16378082BEE
:10564000E2D89B00FB589F466368002BDCD0A06823
:105650009847D9E77F222179B54D0A405300EB18CE
:105660009846C809804440460123303005799D435F
:105670000571057903339D430571002A00D1FAE0D5
:105680004346AD4A1B7D1278934200D3E9E0AB4A12
:105690005B011568ED18002D00D1E5E0A368627983
:1056A0002078AD69A847AFE7A54A1378002B00D151
:1056B000DAE01378013BDBB213701378002BA3D12F
:1056C00001229B4D01212B78042013432B7034239E
:1056D000EA5C8A43EA54EA5C8243EA540133EA5CB6
:1056E0008A43EA54EA5C8243EA54237800209B46CA
:1056F00000F0A4FC602223791A40602A0DD0402AD1
:1057000000D1CAE0DB06DB0E012B00D120E1022B29
:1057100000D1DCE0002B00D1CBE020780021FFF7A6
:1057200057FE80212078FFF753FE6DE7804D2B78E0
:10573000DB0700D468E7FFF7CDFE65E7019BDB7868
:10574000DB0700D460E76068FFF7B8FE5CE7784DE0
:105750002B78DB0700D457E728780007C00FFFF746
:10576000B7FE51E72378734999468B46724B7349CC
:1057700098468A4639001A7847460023B0460025E5
:105780004E46894610E053461B686A019B18002B61
:1057900000D176E0DB68300098473A780135EDB209
:1057A000511C2B008D4244DCAA42ECD89B1A5B01B1
:1057B0005B44EFE72378614999465F4B8A469846F8
:1057C0003100BB464E461A780025002347468946DD
:1057D0000FE053461B686A019B18002B55D0DB680D
:1057E000300098473A780135EDB2511C2B008D42BC
:1057F00007DC9542EDD39B1A009A5B019446634403
:10580000EDE7019D542200212800FDF7E7FB10225F
:10581000FF214C48FDF7E2FB28002022FF21143035
:105820004E465F46FDF7DAFB00F0FEFBFFF74EFE4B
:10583000EAE63F4D542200212800FDF7CFFB10225D
:10584000FF21281DFDF7CAFB28002022FF2114306C
:1058500046464F46FDF7C2FB00F0E6FB2379AB70EE
:10586000D2E6501C984213DA11B0F0BCBB46B246E7
:10587000A946A046F0BDA3686279207800F0F2FB4B
:10588000C2E646464F462A4DE6E74E465F46CBE720
:10589000284D9B1A5B015D1900E72B4800F0CEFBF9
:1058A000012158460EAAFFF701F9002800D0ABE607
:1058B00033E7202A00D156E1002A00D02DE7637992
:1058C000092B00D929E7214A9B00D3589F46702312
:1058D000217A0B4200D020E7C80982460F330B40E3
:1058E0005B0098461448EB1853441B7D007899469A
:1058F000834261D3431C4B4500DA4EE14B461B1AF1
:105900005B0199460B488144002A00D14AE14B468D
:10591000586900F093FB4B46012158465B690EAA7B
:105920009847C2E7F0100020947201104C690020E3
:10593000F46800203C73011070780020C8650020D6
:1059400072780020F8680020AD4A0010B87201108B
:10595000237A0F2B00D9E0E6D74AEB181B7915788C
:10596000AB4236D3691C994200DAD6E65D1BD34BB5
:105970006D01ED18686900F061FB012158466B6903
:105980000EAA9847002800D03EE660221500237931
:105990001D401A4200D0C0E663790A3B012B00D9B2
:1059A000BBE600F04BFB63790A2B00D18EE1584631
:1059B0000EA900F0CDFA27E6C1485B0100688146D8
:1059C0009944002A00D1EDE04B46002B00D1A4E61B
:1059D0009DE7BB4A5B011568ED18002DCAD19CE616
:1059E000A37999466B789945E1D06B78002B00D06C
:1059F00034E14B466B70002B00D12CE14846013856
:105A0000C0B2FFF79DFA002800D17EE143780793EA
:105A1000022B00D079E10122C179B1468B114911E5
:105A200013400A40302112015B0113432A78A84633
:105A30008A4313432B7009239A4682445646BA463A
:105A4000C37882781B021343C31805939A4B0493BF
:105A50009A4B08939A4B09939A4B0A93059BB3422E
:105A600000D855E1737801220B2B03D13378F278FB
:105A7000F6187378042B00D044E1059B00279B1B8C
:105A80009BB20693049B0B921D78002303931BE0AB
:105A9000099A7B011568ED18002D00D132E1310023
:105AA00058462B69069A98478446082803D9069ACF
:105AB000824200D313E1049B01371D78FFB26B1CB7
:105AC00003979F4200DD1DE1AF42E1D3039B5D1BC5
:105AD000089B6D019C466544E1E76B780CAA023295
